S01400002E2F44656275672F426F6964732E7331397C
S315200000000248854600F054FDFEE7C04600C00120A8
S3152000001080B500AF0C4B00221A600C4B29221A60C7
S315200000200B4B00221A60084B05221A60C046064B6D
S315200000301A6880235B021340F9D0034B00221A6012
S31520000040C046BD4680BDC04610E000E014E000E09A
S3152000005018E000E080B500AFFFF7DAFFFFF7D8FF22
S31520000060C046BD4680BD80B582B000AF78600AE04C
S31520000070FFF7CEFFFFF7CCFFFFF7CAFFFFF7C8FF5A
S315200000807B68013B7B607B68002BF1D1C046BD4677
S3152000009002B080BD80B582B000AF786007E0FA2359
S315200000A09B001800FFF7DFFF7B68013B7B607B68C6
S315200000B0002BF4D1C046BD4602B080BD80B584B0C9
S315200000C000AF0200FB1D1A700F4A0F203B18127852
S315200000D01A703B183A18127804218A431A70FB1DAD
S315200000E01B785BB2042293435AB23B181B785BB24F
S315200000F013435AB23B181A70034A3B181B781370E5
S31520000100C046BD4604B080BD1410024080B584B000
S3152000011000AF0200FB1D1A700F4A0F203B18127801
S315200001201A703B183A18127804218A431A70FB1D5C
S315200001301B785BB2DB435BB23A18127852B213409B
S315200001405AB23B181A70044A3B181B781370C046E3
S31520000150BD4604B080BDC0461410024080B584B0B0
S3152000016000AF0200FB1D1A700F203B1818221A70D0
S31520000170FB1DFA1D3918127809780A401A70104AA0
S315200001800E217B1812781A703B181B785BB2DB4362
S315200001905BB27A18127852B213405AB27B181A7090
S315200001A07B1808007918FA1D097812780A431A7004
S315200001B0034A3B181B781370C046BD4604B080BD69
S315200001C01410024080B582B000AF4020FFF79EFF9A
S315200001D0144B154A1A600120FFF798FF0220FFF7FB
S315200001E06DFFFFF737FF4020FFF768FFFFF732FF6D
S315200001F04020FFF78BFFFFF72DFF0C4AFB1D1278DF
S315200002001A70FB1DFA1D12787F218A431A70C04688
S315200002104020FFF753FF034B054A1A60C046BD46F0
S3152000022002B080BD0010024055550000111002405A
S315200002305555555580B584B000AF0200FB1D1A7088
S315200002404020FFF763FF1B4B1B4A1A600120FFF774
S3152000025035FF0220FFF732FFFB1D1B781800FFF742
S315200002607DFFFFF7F7FE4020FFF728FFFFF7F2FE9E
S31520000270124A0F23FB1812781A704020FFF746FF08
S315200002800C4B0F4A1A60FB1D1B78082B03D0FB1D55
S315200002901B78102B06D1FB1D1B781800FFF75EFF7D
S315200002A0FFF790FF0F23FB181B781800BD4604B0FC
S315200002B080BDC04600100240555500001110024076
S315200002C05555555580B582B000AF0200FB1D1A70FA
S315200002D0BB1D0A1C1A70174AFB1D1B781370BB1D09
S315200002E01B781800FFF73AFFFFF7B4FE4020FFF710
S315200002F0E5FEFFF7AFFE4020FFF708FFBB1D1B788A
S31520000300082B03D0BB1D1B78102B06D1BB1D1B78D9
S315200003101800FFF723FFFFF755FF064B00221A7040
S315200003204020FFF7CBFE0020FFF718FFC046BD4652
S3152000033002B080BD1510024080B582B000AF020029
S31520000340FB1D1A70BB1D0A1C1A704020FFF7DEFE2B
S31520000350BB1D1B781800FFF701FF0120FFF7D6FE13
S315200003600220FFF7D3FEBB1D1A78FB1D1B78110058
S315200003701800FFF7A7FFC046BD4602B080BD80B576
S3152000038082B000AF0200FB1D1A70BB1D0A1C1A703A
S315200003904020FFF7BBFEBB1D1B781800FFF7DEFED3
S315200003A00120FFF78BFE0220FFF7B0FEBB1D1A7857
S315200003B0FB1D1B7811001800FFF784FFC046BD46C1
S315200003C002B080BD80B582B000AF0200FB1D1A705E
S315200003D0FB1D1B781800FFF72DFFFB1D1B7818004F
S315200003E0FFF728FF03001800BD4602B080BD80B588
S315200003F000AF4020FFF762FE0A20FFF734FE782088
S31520000400FFF784FE1E20FFF745FE2020FFF756FE4D
S3152000041018213E20FFF790FF18213F20FFF78CFF81
S315200004201821C020FFF788FF18214020FFF784FFFE
S315200004301821B820FFF780FF0020FFF78FFEC04667
S31520000440BD4680BD80B582B000AFFB1D00221A706C
S3152000045023E0FB1D1B78482252421343DBB21821AE
S315200004601800FFF769FF18214020FFF765FFBB1D25
S3152000047000221A7008E018210020FFF780FFBB1D1C
S315200004801A78BB1D01321A70BB1D1B783F2BF2D97F
S31520000490FB1D1A78FB1D01321A70FB1D1B78072BDA
S315200004A0D7D9C046BD4602B080BD90B585B000AF55
S315200004B0040008001100FB1D221C1A70BB1D021C23
S315200004C01A707B1D0A1C1A70FB1D1B785BB2002B51
S315200004D047DBBB1D1B783F2B43D8BB1D1B78072250
S315200004E0134001229A400F23FB181A707B1D1B789C
S315200004F0002B18D0BB1D1B78DB08D8B20200FB1DD1
S315200005001B781A49D2018A18D15C0400FB1D1B787E
S315200005100F22BA1812780A43D0B21449E2018A1877
S31520000520011CD1541EE0BB1D1B78DB08D8B202008B
S31520000530FB1D1B780D49D2018A18D35C5BB20F22B2
S31520000540BA18127852B2D24352B2134059B20200AC
S31520000550FB1D1B78C8B20549D2018A18011CD1544B
S3152000056000E0C046BD4605B090BDC046CC0B00207D
S3152000057080B582B000AFFB1D00221A701BE0BB1DA8
S3152000058000221A700DE0FB1D1A78BB1D1B780E4940
S31520000590D2018A180021D154BB1D1A78BB1D013205
S315200005A01A70BB1D1B785BB2002BECDAFB1D1A7888
S315200005B0FB1D01321A70FB1D1B78072BDFD9C046A5
S315200005C0BD4602B080BDC046CC0B002080B582B0AF
S315200005D000AFFB1D00221A7038E0BB1D00221A70E6
S315200005E02BE0BB1D1B7840221343DBB208211800E9
S315200005F0FFF7A2FEFB1D1B78482252421343DBB2B3
S3152000060008211800FFF798FEFB1D1A78BB1D1B78E2
S315200006103549D2018A18D35C08211800FFF7AFFEAE
S3152000062018213F20FFF788FE1821C020FFF784FEFF
S31520000630BB1D1A78BB1D01321A70BB1D1B783F2BC0
S31520000640CFD9FB1D1A78FB1D01321A70FB1D1B78B2
S31520000650072BC2D97B1D00221A703DE03B1D40228C
S315200006601A702FE03B1D1B78403BDBB25BB2402269
S3152000067013435BB2DBB210211800FFF75DFE7B1D32
S315200006801B78482252421343DBB210211800FFF791
S3152000069053FE7B1D1A783B1D1B781349D2018A18FD
S315200006A0D35C10211800FFF76AFE18213F20FFF7C0
S315200006B043FE1821C020FFF73FFE3B1D1A783B1D45
S315200006C001321A703B1D1B785BB2002BCADA7B1DE8
S315200006D01A787B1D01321A707B1D1B78072BBDD91A
S315200006E0C046BD4602B080BDCC0B002080B500AF11
S315200006F0204B18221A60824880471F4B1F4A1A60D7
S315200007001C4B18221A601E4B1A681D4B1204120C21
S315200007101A601B4B1A681A4BAA21C9050A431A608C
S31520000720184B1A68174B18490A401A60154B1A6855
S31520000730144BF02109010A431A60144B1A68134B13
S315200007401204120C1A60114B1A68104B10490A43F6
S315200007501A600B4B1A680A4B120C12041A60084BCB
S315200007601A68074B0B490A431A60FFF740FEC0463A
S31520000770BD4680BD303802400010024055555555C3
S31520000780000C0240040C0240FF00FFFF0C0C02404C
S315200007900000AAFF5555000090B587B000AF3B007A
S315200007A03F4A13CA13C312681A601723FB18FF2285
S315200007B01A701423FB1810221A701623FB18002215
S315200007C01A7055E01423FB181A781623FB181B7889
S315200007D09A4013217B181A70324A7B181B781370A3
S315200007E0314B1B78DAB212203B180F210A401A70BF
S315200007F03B181B78002B35D01223FB181B780122BF
S31520000800134003D01523FB1800221A701223FB185D
S315200008101B780222134003D01523FB1801221A70DD
S315200008201223FB181B780422134003D01523FB1830
S3152000083002221A701223FB181B780822134003D0B9
S315200008401523FB1803221A701623FB181B789B000E
S31520000850DAB21523FB181B78D318DAB21723FB1844
S31520000860043A1A7016217B181A787B1801321A70EE
S315200008701623FB181B78042BA4D90A4B00221A70C6
S315200008801723FB181B78FF2B01D1FF2304E0172326
S31520000890FB181B783A00D35C1800BD4607B090BD04
S315200008A024140020150C0240110C0240B0B588B06B
S315200008B000AF0200FB1D1A701F23FB1800221A70BE
S315200008C0FB1D1B780F2B0DD80C217B180A4A31CA29
S315200008D031C312681A60FB1D1A781F23FB1879187A
S315200008E08A5C1A70054A1F23FB181B781370C046B2
S315200008F0BD4608B0B0BDC04634140020140C0240DA
S315200009000902000880B584B000AFF860B9607A604B
S31520000910FB68BA685A60FB687A689A60C046BD462A
S3152000092004B080BD80B582B000AF78607B680121BD
S31520000930180000F011F8C046BD4602B080BD80B553
S3152000094082B000AF78607B680021180000F004F8C0
S31520000950C046BD4602B080BD80B58AB000AF786083
S3152000096039607B681B685B68FB617B681B689B68DA
S31520000970BB61FB69002B00DA01335B107B6100232E
S315200009807B623FE000233B6235E0FB69002B00DA07
S3152000099001335B105B421A003B6A9B183B61BB69C3
S315200009A0002B00DA01335B105B421A007B6A9B182E
S315200009B0FB603B693A695A43FB68F9684B43D21896
S315200009C07B6979694B439A4212DA7B68DB68DAB233
S315200009D03B6ADBB2D318D8B27B681B69DAB27B6A72
S315200009E0DBB2D318DBB23A68D2B21900FFF75DFD4D
S315200009F03B6A01333B623A6AFB699A42C5DB7B6AF2
S31520000A0001337B627A6ABB699A42BBDBC046BD462C
S31520000A100AB080BD80B586B000AF78607B681800CC
S31520000A20FFF78DFF7B68DA687B685B68D3187B618C
S31520000A307B681A697B689B68D3183B617B681B6857
S31520000A405B68FB607B681B689B68BB607B687A6918
S31520000A50DA607B683A691A617B69002B04DC7B6863
S31520000A605B685A427B685A607A69FB68D318802B88
S31520000A7004DD7B685B685A427B685A603B69002BC1
S31520000A8004DC7B689B685A427B689A603A69BB683B
S31520000A90D318402B04DD7B689B685A427B689A609A
S31520000AA07B681800FFF73EFFC046BD4606B080BDF6
S31520000AB080B586B000AF434BFB60FFF717FEFFF70C
S31520000AC057FD012201210020FFF7EFFC0B23FB1825
S31520000AD03D4A12781A70FFF779FD00237B6110E0FA
S31520000AE07B69DBB2012200211800FFF7DEFC7B695F
S31520000AF0DBB201223F211800FFF7D7FC7B690133C7
S31520000B007B617B697F2BEBDD00233B6110E03B693A
S31520000B10DBB2012219000020FFF7C7FC3B69DBB2DC
S31520000B20012219007F20FFF7C0FC3B6901333B619E
S31520000B303B693F2BEBDD04237B60FB681B6A7968EE
S31520000B40F86800229847FB68DB69FA681000984726
S31520000B50FFF722FE0200FB1C1A70FB1C1B781800F4
S31520000B60FFF7A4FEFB1C1B78042B16D002DC022BFD
S31520000B700BD021E0052B18D0062B1DD1FB681B6A54
S31520000B807968F8680022984716E0FB681B6A7A683D
S31520000B905242F868002198470EE0FB681B6A7A6883
S31520000BA05142F8680022984706E0FB681B6A7A687B
S31520000BB0F86800219847C046FFF708FD1420FFF784
S31520000BC069FAC0E700140020CC0F002000000000C6
S31520000BD000000000000000000000000000000000EF
S31520000BE000000000000000000000000000000000DF
S31520000BF000000000000000000000000000000000CF
S31520000C0000000000000000000000000000000000BE
S315200013C00000000000000000000000000C000000EB
S315200013D01E0000001E0000000001000201000101A5
S315200013E001020103020002010202020303010302B9
S315200013F000000000000000000000000000000000C7
S31520001400CC13002001000000010000003200000083
S315200014101E000000250900203F090020150A002093
S31520001420050900200102030A0405060B0708090C1A
S315200014300E000F0D3F065B4F666D7D077F6F777C35
S30920001440395E797101
S70520000000DA
